:10027A00E4F5201200038F20EF60F814FF120296B3
:02028A0080F101
:0A028C00EF1F70011E144E70F722E0
:10025F0018083F065B4F666D7D077F6F777C395EB1
:0A026F0079717638373E735C400069
:0902960074082FF8E6F4F580224B
:1001F600E4F580EF14B40800504D900207F8282863
:100206007302024702023F02023702022F02022B4A
:1002160002022702022302021FD290800ED2908091
:1002260012D2908016D290801AC290D291D2928029
:1002360016C290D291C292800EC290C291D2928082
:1002460006C290C291C29274082DF8E6F5807F64CA
:090256007E0012028CE4F5802206
:10000300E4F5217590F7AF90EF64F7602C7FE87EFD
:100013000312028CAF90EF2449601124E060122494
:10002300F0601324707012752101800D7521058015
:1000330008752109800375210DAF90EF64F770F9FE
:100043007590FBAF90EF64FB602C7FE87E03120298
:100053008CAF90EF2445601124E0601224F060130C
:1000630024707012752102800D7521068008752198
:100073000A800375210EAF90EF64FB70F97590FD54
:10008300AF90EF64FD602C7FE87E0312028CAF908B
:10009300EF2443601124E0601224F0601324707095
:1000A30012752103800D752107800875210B8003CC
:1000B30075210FAF90EF64FD70F97590FEAF90EF6F
:1000C30064FE602C7FE87E0312028CAF90EF244223
:1000D300601124E0601224F0601324707012752103
:1000E30004800D752108800875210C80037521108B
:0900F300AF90EF64FE70F9AF213B
:0100FC0022E1
:10018900E4F52275900FAF90EF640F605D7FE87E14
:100199000312028CAF90EF640F604FAF90EF24F51C
:1001A900601024FE60111460132407701275220177
:1001B900800D75220280087522038003752204755B
:1001C90090F0AF90EF2450600C24E0600C24F060B4
:1001D9000C2470800E7404800674088002740C2547
:0C01E90022F522AF90EF64F070F9AF2215
:0101F50022E7
:030000000200FDFE
:0C00FD00787FE4F6D8FD758122020144F2
:1001090002027AE493A3F8E493A34003F68001F290
:1001190008DFF48029E493A3F85407240CC8C333F7
:10012900C4540F4420C8834004F456800146F6DFC6
:10013900E4800B010204081020408090025FE47EF5
:10014900019360BCA3FF543F30E509541FFEE493BB
:10015900A360010ECF54C025E060A840B8E493A382
:10016900FAE493A3F8E493A3C8C582C8CAC583CAAD
:10017900F0A3C8C582C8CAC583CADFE9DEE780BE65
:010279000084
:00000001FF
