:0F009E001200B71200BE7F017E001200AD80F786
:0700B700D288D2A8D2AF22CB
:0700BE00D28AD2AAD2AF22C0
:03000300020016E2
:10001600C0E0C0F0C083C082C0D075D000C000C0B0
:1000260001C002C003C004C005C006C0077FE87E49
:10003600031200AD20B202B280D007D006D005D0A0
:1000460004D003D002D001D000D0D0D082D083D04B
:04005600F0D0E032D4
:0300130002005A8E
:10005A00C0E0C0F0C083C082C0D075D000C000C06C
:10006A0001C002C003C004C005C006C0077FE87E05
:10007A00031200AD20B302B280D007D006D005D05B
:10008A0004D003D002D001D000D0D0D082D083D007
:04009A00F0D0E03290
:0A00AD00EF1F70011E144E70F722C1
:03000000020006F5
:0C000600787FE4F6D8FD75810702009EAB
:00000001FF
