:06022F0000007F1BDFFE52
:0102350022A6
:04016E008C088D0963
:10017200AB07AA06EA3395E0F9F87FA07E867D01F7
:100182007C001201D4AB07AA06D280C280E4F583B8
:10019200F58212022FA3E5826496458370F4D28021
:1001A200E4F583F582C374649509FFE49508FEAD16
:1001B20003AC021200037C007D64120015C3E582C9
:1001C2009FEE6480F8E58364809850BF12022FA3EB
:0201D20080D3D8
:0B0224007D3C7C007F907E0102016E9B
:03000000020218E1
:0C021800787FE4F6D8FD7581090202240D
:10000300EF8DF0A4A8F0CF8CF0A428CE8DF0A42E11
:02001300FE22CB
:10001500C2D5EC30E709B2D5E4C39DFDE49CFCEE06
:1000250030E715B2D5E4C39FFFE49EFE12004BC333
:10003500E49DFDE49CFC800312004B30D507C3E42E
:060045009FFFE49EFE2275
:1001D400C2D5E830E70FB2D5E4C39BFBE49AFAE456
:1001E40099F9E498F8EC30E717B2D512020A120034
:1001F400DCE4C39BFBE49AFAE499F9E498F88003FD
:100204001200DC30D50DE4C39FFFE49EFEE49DFDA7
:04021400E49CFC2248
:10004B00BC000BBE0029EF8DF084FFADF022E4CC99
:10005B00F875F008EF2FFFEE33FEEC33FCEE9DEC62
:10006B00984005FCEE9DFE0FD5F0E9E4CEFD22EDA8
:10007B00F8F5F0EE8420D21CFEADF075F008EF2FF2
:10008B00FFED33FD4007985006D5F0F222C398FDE3
:05009B000FD5F0EA2280
:1000A00075F008758200EF2FFFEE33FECD33CDCC17
:1000B00033CCC58233C5829BED9AEC99E58298409A
:1000C0000CF582EE9BFEED9AFDEC99FC0FD5F0D677
:1000D000E4CEFBE4CDFAE4CCF9A88222B800C1B9A1
:1000E0000059BA002DEC8BF084CFCECDFCE5F0CBDF
:1000F000F97818EF2FFFEE33FEED33FDEC33FCEB18
:1001000033FB10D703994004EB99FB0FD8E5E4F9D2
:10011000FA227818EF2FFFEE33FEED33FDEC33FCBF
:10012000C933C910D7059BE99A4007EC9BFCE99AB3
:10013000F90FD8E0E4C9FAE4CCFB2275F010EF2FF8
:10014000FFEE33FEED33FDCC33CCC833C810D707F8
:100150009BEC9AE899400AED9BFDEC9AFCE899F833
:0E0160000FD5F0DAE4CDFBE4CCFAE4C8F922C6
:00000001FF
