:0C0111000A08C0F9A4B0999282F880900E
:0A011E00EF1F70011E144E70F7224F
:10008F00E4F580EFB40800504D90009FF8282873D6
:10009F000200DF0200D70200CF0200C70200C30236
:1000AF0000BF0200BB0200B7D2B0800ED2B08012E8
:1000BF00D2B08016D2B0801AC2B0D2B1D2B28016EE
:1000CF00C2B0D2B1C2B2800EC2B0C2B1D2B280063B
:1000DF00C2B0C2B1C2B274082DF8E6F4F5807F64E5
:0900EF007E0012011EE4F58022DE
:1000F800E4FAFBAF03AD03AC0212008F0BBB0001A7
:090108000AEB64084A70EC80E780
:03000000020003F8
:0C000300787FE4F6D8FD75811102004AF8
:10000F000200F8E493A3F8E493A34003F68001F20F
:10001F0008DFF48029E493A3F85407240CC8C333F2
:10002F00C4540F4420C8834004F456800146F6DFC1
:10003F00E4800B0102040810204080900111E47E3F
:10004F00019360BCA3FF543F30E509541FFEE493B6
:10005F00A360010ECF54C025E060A840B8E493A37D
:10006F00FAE493A3F8E493A3C8C582C8CAC583CAA8
:10007F00F0A3C8C582C8CAC583CADFE9DEE780BE60
:01011D0000E1
:00000001FF
