:1001F600E4F521F522F523752464D2001201898FD6
:1002060021E52124FE601814602414603024037054
:100216002EE52270047F0180027F008F228020D38A
:10022600E524946474809480401515248011C3E5F8
:1002360024946E74809480500605248002B20030A7
:1002460000BAAF230523AD221202CBE52364087062
:0C02560002F523AF247E0012034B80A0B1
:0A034B00EF1F70011E144E70F72220
:10000300E4F52675A0F7AFA0EF64F7602C7FE87ED8
:100013000312034BAFA0EF2449601124E0601224C4
:10002300F0601324707012752601800D752605800B
:1000330008752609800375260DAFA0EF64F770F9E4
:1000430075A0FBAFA0EF64FB602C7FE87E03120377
:100053004BAFA0EF2445601124E0601224F060133D
:1000630024707012752602800D7526068008752689
:100073000A800375260EAFA0EF64FB70F975A0FD2F
:10008300AFA0EF64FD602C7FE87E0312034BAFA0AB
:10009300EF2443601124E0601224F0601324707095
:1000A30012752603800D752607800875260B8003BD
:1000B30075260FAFA0EF64FD70F975A0FEAFA0EF3A
:1000C30064FE602C7FE87E0312034BAFA0EF244253
:1000D300601124E0601224F06013247070127526FE
:1000E30004800D752608800875260C80037526107C
:0900F300AFA0EF64FE70F9AF2626
:0100FC0022E1
:10018900E4F52575A00FAFA0EF640F605D7FE87EF1
:100199000312034BAFA0EF640F604FAFA0EF24F53C
:1001A900601024FE60111460132407701275250174
:1001B900800D752502800875250380037525047552
:1001C900A0F0AFA0EF2450600C24E0600C24F06094
:1001D9000C2470800E7404800674088002740C2547
:0C01E90025F525AFA0EF64F070F9AF25FC
:0101F50022E7
:1003300018083F065B4F666D7D077F6F777C395EDF
:0A03400079717638373E735C400097
:0903550074082FF8E6F4F580228B
:10026200E4F580EF14B40800504D900273F828288A
:10027200730202B30202AB0202A302029B020297C2
:1002820002029302028F02028BD290800ED29080E1
:1002920012D2908016D290801AC290D291D29280BD
:1002A20016C290D291C292800EC290C291D2928016
:1002B20006C290C291C29274082DF8E6F5807F645E
:0902C2007E0012034BE4F58022DA
:1002CB00ED7005C374079FFFEFB408005056900202
:1002DB00E0F82828730202F80202FC02030502036D
:1002EB000B02031402031802031E020327D293808E
:1002FB002DD293D292C291C29022D293D2928004E9
:10030B00D293C292C291D29022D2938002C293C254
:10031B00928004C293D292D291D29022C293D29263
:04032B00D291C29019
:01032F0022AB
:030000000200FDFE
:0C00FD00787FE4F6D8FD758126020144EE
:100109000201F6E493A3F8E493A34003F68001F215
:1001190008DFF48029E493A3F85407240CC8C333F7
:10012900C4540F4420C8834004F456800146F6DFC6
:10013900E4800B0102040810204080900330E47E23
:10014900019360BCA3FF543F30E509541FFEE493BB
:10015900A360010ECF54C025E060A840B8E493A382
:10016900FAE493A3F8E493A3C8C582C8CAC583CAAD
:10017900F0A3C8C582C8CAC583CADFE9DEE780BE65
:01034A0000B2
:00000001FF
