:1001AA0080008000FE3FC001A00290048C1883608A
:1001BA00F00700020001FF7F80008000A0004000DD
:1001CA001004100412041204923F922492249224DE
:1001DA00922492249224902C881408040404020481
:1001EA00040A0412F47F0402E43F3F22E43F24227B
:1001FA00E43F24220410F47F441084108414040879
:10020A0000000000000000000000000000000000E4
:10021A0000000000000000000000000000000000D4
:10022A0001020408102040800000000000000000C5
:10023A0000000000000000000102040810204080B5
:1000FD00E4F520F521F522F5230523E5237002050E
:10010D0022E4F520C3E520941074809480506CE5B2
:10011D002090022A93FFE52090023A93FD75F0029C
:10012D00E521A4F58285F08375F002E520120459CE
:10013D00E58224AAF582E5833401F583E493F4FB8B
:10014D0075F002E521A4F58285F08375F002E520B6
:10015D00120459E58224ABF582E5833401F583E47D
:10016D0093F4F52712024A7F057E00120465E4F52B
:10017D0027FBFDFF12024A05208089E52364054512
:10018D00227006F522F5230521D3E52194307480E4
:0D019D0094805003020106E4F521020106E2
:0B046500EF1FAC0670011E4C70F62269
:10000300E4F5287590F7AF90EF64F7602C7FE87EF6
:1000130003120465AF90EF2449601124E0601224B9
:10002300F0601324707012752801800D7528058007
:1000330008752809800375280DAF90EF64F770F9F0
:100043007590FBAF90EF64FB602C7FE87E03120496
:1000530065AF90EF2445601124E0601224F0601333
:1000630024707012752802800D7528068008752883
:100073000A800375280EAF90EF64FB70F97590FD4D
:10008300AF90EF64FD602C7FE87E03120465AF90B0
:10009300EF2443601124E0601224F0601324707095
:1000A30012752803800D752807800875280B8003B7
:1000B30075280FAF90EF64FD70F97590FEAF90EF68
:1000C30064FE602C7FE87E03120465AF90EF244248
:1000D300601124E0601224F06013247070127528FC
:1000E30004800D752808800875280C800375281076
:0900F300AF90EF64FE70F9AF2834
:0100FC0022E1
:10036800E4F52975900FAF90EF640F605D7FE87E2C
:1003780003120465AF90EF640F604FAF90EF24F560
:10038800601024FE6011146013240770127529018F
:10039800800D752902800875290380037529047565
:1003A80090F0AF90EF2450600C24E0600C24F060D3
:1003B8000C2470800E7404800674088002740C2566
:0C03C80029F529AF90EF64F070F9AF291F
:0103D4002206
:10043E0018083F065B4F666D7D077F6F777C395ED0
:0A044E0079717638373E735C400088
:0904700074082FF8E6F4F580226F
:1003D500E4F580EF14B40800504D9003E6F82828A2
:1003E5007302042602041E02041602040E02040A05
:1003F5000204060204020203FED290800ED290800F
:1004050012D2908016D290801AC290D291D2928048
:1004150016C290D291C292800EC290C291D29280A1
:1004250006C290C291C29274082DF8E6F5807F64E9
:090435007E00120465E4F580224A
:02024A00A90702
:10024C00E4FFEFC39408748094805019E527C4131D
:10025C001313540124FF92B7E52725E0F527C2B606
:10026C00D2B60F80DDE4FFEFC39408748094805005
:10027C0016EBC4131313540124FF92B7EB25E0FBC8
:10028C00C2B6D2B60F80E0E4FFEFC394087480943A
:10029C00805016EDC4131313540124FF92B7ED25AF
:1002AC00E0FDC2B6D2B60F80E0E4FFEFC394087451
:1002BC008094805016E9C4131313540124FF92B791
:0F02CC00E925E0F9C2B6D2B60F80E0C2B5D2B5CF
:0102DB002200
:030000000202DC1D
:0C02DC00787FE4F6D8FD75812902032329
:0C045900A42582F582E5F03583F58322AE
:1002E8000200FDE493A3F8E493A34003F68001F22F
:1002F80008DFF48029E493A3F85407240CC8C33317
:10030800C4540F4420C8834004F456800146F6DFE5
:10031800E4800B010204081020408090043EE47E33
:10032800019360BCA3FF543F30E509541FFEE493DA
:10033800A360010ECF54C025E060A840B8E493A3A1
:10034800FAE493A3F8E493A3C8C582C8CAC583CACC
:10035800F0A3C8C582C8CAC583CADFE9DEE780BE84
:0104580000A3
:00000001FF
