:0200ED00C180D0
:0A00E300EF1F70011E144E70F7228B
:10008F00300102D20030002D30B00930B10630B34C
:10009F000320B2217FE87E031200E3C20020B003E9
:1000AF007F012220B1037F022220B2037F0322208F
:1000BF00B3117F042230B00B30B10830B20530B32A
:0500CF0002D2007F00D9
:0100D4002209
:0E00D500C20112008F7E00EF60F6B29080F242
:03000000020003F8
:0C000300787FE4F6D8FD75812002004AE9
:10000F000200D5E493A3F8E493A34003F68001F232
:10001F0008DFF48029E493A3F85407240CC8C333F2
:10002F00C4540F4420C8834004F456800146F6DFC1
:10003F00E4800B01020408102040809000EDE47E64
:10004F00019360BCA3FF543F30E509541FFEE493B6
:10005F00A360010ECF54C025E060A840B8E493A37D
:10006F00FAE493A3F8E493A3C8C582C8CAC583CAA8
:10007F00F0A3C8C582C8CAC583CADFE9DEE780BE60
:0100EF000010
:00000001FF
