:0B02ED00EF1FAC0670011E4C70F622E3
:1002B80018083F065B4F666D7D077F6F777C395E58
:0A02C80079717638373E735C400010
:0902F80074082FF8E6F4F58022E9
:1001F600E4F580EF14B40800504D900207F8282863
:100206007302024702023F02023702022F02022B4A
:1002160002022702022302021FD290800ED2908091
:1002260012D2908016D290801AC290D291D2928029
:1002360016C290D291C292800EC290C291D2928082
:1002460006C290C291C29274082DF8E6F5807F64CA
:090256007E001202EDE4F58022A5
:10000300E4F5267590F7AF90EF64F7602C7FE87EF8
:10001300031202EDAF90EF2449601124E060122433
:10002300F0601324707012752601800D752605800B
:1000330008752609800375260DAF90EF64F770F9F4
:100043007590FBAF90EF64FB602C7FE87E03120298
:10005300EDAF90EF2445601124E0601224F06013AB
:1000630024707012752602800D7526068008752689
:100073000A800375260EAF90EF64FB70F97590FD4F
:10008300AF90EF64FD602C7FE87E031202EDAF902A
:10009300EF2443601124E0601224F0601324707095
:1000A30012752603800D752607800875260B8003BD
:1000B30075260FAF90EF64FD70F97590FEAF90EF6A
:1000C30064FE602C7FE87E031202EDAF90EF2442C2
:1000D300601124E0601224F06013247070127526FE
:1000E30004800D752608800875260C80037526107C
:0900F300AF90EF64FE70F9AF2636
:0100FC0022E1
:10018900E4F52775900FAF90EF640F605D7FE87E0F
:10019900031202EDAF90EF640F604FAF90EF24F5BB
:1001A900601024FE60111460132407701275270172
:1001B900800D75270280087527038003752704754C
:1001C90090F0AF90EF2450600C24E0600C24F060B4
:1001D9000C2470800E7404800674088002740C2547
:0C01E90027F527AF90EF64F070F9AF2706
:0101F50022E7
:0E02D3007523FF7BFEE4FD7F0112029B80F28B
:02025F008F24EA
:10026100E4F525F525C3E52594087480948050298B
:10027100C374079525FFF8E524088002C313D8FC51
:100281001392B2C2B17F017E001202EDD2B17F01A1
:090291007E001202ED052580CC6F
:01029A002241
:0C02E100C2B07F017E001202EDD2B022FC
:10029B008F208D218B22AF2312025FAF2212025FC0
:0D02AB00AF2112025FAF2012025F0202E1DC
:030000000200FDFE
:0C00FD00787FE4F6D8FD758127020144ED
:100109000202D3E493A3F8E493A34003F68001F237
:1001190008DFF48029E493A3F85407240CC8C333F7
:10012900C4540F4420C8834004F456800146F6DFC6
:10013900E4800B01020408102040809002B8E47E9C
:10014900019360BCA3FF543F30E509541FFEE493BB
:10015900A360010ECF54C025E060A840B8E493A382
:10016900FAE493A3F8E493A3C8C582C8CAC583CAAD
:10017900F0A3C8C582C8CAC583CADFE9DEE780BE65
:0102D200002B
:00000001FF
